{
  "contractName": "Social",
  "abi": [
    {
      "constant": true,
      "inputs": [
        {
          "name": "",
          "type": "uint256"
        }
      ],
      "name": "likes",
      "outputs": [
        {
          "name": "postId",
          "type": "bytes32"
        },
        {
          "name": "owner",
          "type": "address"
        }
      ],
      "payable": false,
      "stateMutability": "view",
      "type": "function"
    },
    {
      "constant": true,
      "inputs": [
        {
          "name": "",
          "type": "uint256"
        }
      ],
      "name": "listPosts",
      "outputs": [
        {
          "name": "id",
          "type": "bytes32"
        },
        {
          "name": "username",
          "type": "bytes32"
        },
        {
          "name": "message",
          "type": "string"
        },
        {
          "name": "hashImage",
          "type": "string"
        },
        {
          "name": "owner",
          "type": "address"
        },
        {
          "name": "date",
          "type": "uint256"
        }
      ],
      "payable": false,
      "stateMutability": "view",
      "type": "function"
    },
    {
      "constant": true,
      "inputs": [],
      "name": "balance",
      "outputs": [
        {
          "name": "",
          "type": "uint256"
        }
      ],
      "payable": false,
      "stateMutability": "view",
      "type": "function"
    },
    {
      "inputs": [],
      "payable": false,
      "stateMutability": "nonpayable",
      "type": "constructor"
    },
    {
      "anonymous": false,
      "inputs": [
        {
          "indexed": false,
          "name": "name",
          "type": "bytes32"
        },
        {
          "indexed": false,
          "name": "account",
          "type": "address"
        }
      ],
      "name": "NewUser",
      "type": "event"
    },
    {
      "anonymous": false,
      "inputs": [
        {
          "indexed": false,
          "name": "id",
          "type": "bytes32"
        },
        {
          "indexed": false,
          "name": "username",
          "type": "bytes32"
        },
        {
          "indexed": false,
          "name": "message",
          "type": "string"
        },
        {
          "indexed": false,
          "name": "hashImage",
          "type": "string"
        },
        {
          "indexed": false,
          "name": "owner",
          "type": "address"
        },
        {
          "indexed": false,
          "name": "date",
          "type": "uint256"
        }
      ],
      "name": "NewPost",
      "type": "event"
    },
    {
      "anonymous": false,
      "inputs": [
        {
          "indexed": false,
          "name": "owner",
          "type": "address"
        }
      ],
      "name": "NewBalance",
      "type": "event"
    },
    {
      "constant": false,
      "inputs": [
        {
          "name": "username",
          "type": "bytes32"
        }
      ],
      "name": "register",
      "outputs": [],
      "payable": false,
      "stateMutability": "nonpayable",
      "type": "function"
    },
    {
      "constant": false,
      "inputs": [
        {
          "name": "message",
          "type": "string"
        },
        {
          "name": "hashImage",
          "type": "string"
        }
      ],
      "name": "post",
      "outputs": [],
      "payable": false,
      "stateMutability": "nonpayable",
      "type": "function"
    },
    {
      "constant": false,
      "inputs": [
        {
          "name": "receiver",
          "type": "address"
        },
        {
          "name": "postId",
          "type": "bytes32"
        }
      ],
      "name": "like",
      "outputs": [],
      "payable": true,
      "stateMutability": "payable",
      "type": "function"
    },
    {
      "constant": true,
      "inputs": [],
      "name": "getBloggerMaxValue",
      "outputs": [
        {
          "name": "",
          "type": "address"
        },
        {
          "name": "",
          "type": "uint256"
        }
      ],
      "payable": false,
      "stateMutability": "view",
      "type": "function"
    },
    {
      "constant": true,
      "inputs": [],
      "name": "checkPermission",
      "outputs": [
        {
          "name": "",
          "type": "bool"
        }
      ],
      "payable": false,
      "stateMutability": "view",
      "type": "function"
    },
    {
      "constant": true,
      "inputs": [],
      "name": "getReporters",
      "outputs": [
        {
          "name": "",
          "type": "address[]"
        }
      ],
      "payable": false,
      "stateMutability": "view",
      "type": "function"
    },
    {
      "constant": true,
      "inputs": [],
      "name": "getCountUser",
      "outputs": [
        {
          "name": "count",
          "type": "uint256"
        }
      ],
      "payable": false,
      "stateMutability": "view",
      "type": "function"
    },
    {
      "constant": true,
      "inputs": [
        {
          "name": "postId",
          "type": "bytes32"
        }
      ],
      "name": "getLiskeCountByPostId",
      "outputs": [
        {
          "name": "",
          "type": "uint256"
        }
      ],
      "payable": false,
      "stateMutability": "view",
      "type": "function"
    },
    {
      "constant": true,
      "inputs": [],
      "name": "getUsername",
      "outputs": [
        {
          "name": "username",
          "type": "bytes32"
        }
      ],
      "payable": false,
      "stateMutability": "view",
      "type": "function"
    },
    {
      "constant": true,
      "inputs": [],
      "name": "getTotalPost",
      "outputs": [
        {
          "name": "totalPost",
          "type": "uint256"
        }
      ],
      "payable": false,
      "stateMutability": "view",
      "type": "function"
    }
  ],
  "bytecode": "0x6080604052671bc16d674ec8000060025534801561001c57600080fd5b5060018054600160a060020a0319163317905561117e8061003e6000396000f3006080604052600436106100c45763ffffffff7c0100000000000000000000000000000000000000000000000000000000600035041663094a9b0081146100c95780630ae1b13d146100f05780633e52fba7146101895780634e077842146101ad57806355f8b131146101c25780635a1c5830146101da578063681f3e6d1461020357806370f46202146102185780637e9dffe61461027d57806385972e54146102c35780639d4a936c146103f0578063b69ef8a814610435578063e1fa8e841461044a575b600080fd5b3480156100d557600080fd5b506100de610462565b60408051918252519081900360200190f35b3480156100fc57600080fd5b506040805160206004803580820135601f810184900484028501840190955284845261018794369492936024939284019190819084018382808284375050604080516020601f89358b018035918201839004830284018301909452808352979a9998810197919650918201945092508291508401838280828437509497506104699650505050505050565b005b61018773ffffffffffffffffffffffffffffffffffffffff600435166024356108eb565b3480156101b957600080fd5b506100de610c4f565b3480156101ce57600080fd5b506100de600435610c55565b3480156101e657600080fd5b506101ef610c67565b604080519115158252519081900360200190f35b34801561020f57600080fd5b506100de610cc6565b34801561022457600080fd5b5061022d610cd9565b60408051602080825283518183015283519192839290830191858101910280838360005b83811015610269578181015183820152602001610251565b505050509050019250505060405180910390f35b34801561028957600080fd5b50610295600435610d48565b6040805192835273ffffffffffffffffffffffffffffffffffffffff90911660208301528051918290030190f35b3480156102cf57600080fd5b506102db600435610d8a565b60408051878152602080820188905273ffffffffffffffffffffffffffffffffffffffff8516608083015260a0820184905260c09282018381528751938301939093528651919291606084019160e08501919089019080838360005b8381101561034f578181015183820152602001610337565b50505050905090810190601f16801561037c5780820380516001836020036101000a031916815260200191505b50838103825286518152865160209182019188019080838360005b838110156103af578181015183820152602001610397565b50505050905090810190601f1680156103dc5780820380516001836020036101000a031916815260200191505b509850505050505050505060405180910390f35b3480156103fc57600080fd5b50610405610f0d565b6040805173ffffffffffffffffffffffffffffffffffffffff909316835260208301919091528051918290030190f35b34801561044157600080fd5b506100de610f9c565b34801561045657600080fd5b50610187600435610fa2565b6008545b90565b33600090815260056020526040812054819015156104e857604080517f08c379a000000000000000000000000000000000000000000000000000000000815260206004820152601960248201527f536f727279212c204e6f7420666f756e64206163636f756e7400000000000000604482015290519081900360640190fd5b838342336040516020018085805190602001908083835b6020831061051e5780518252601f1990920191602091820191016104ff565b51815160209384036101000a600019018019909216911617905287519190930192870191508083835b602083106105665780518252601f199092019160209182019101610547565b6001836020036101000a0380198251168184511680821785525050505050509050018381526020018273ffffffffffffffffffffffffffffffffffffffff1673ffffffffffffffffffffffffffffffffffffffff166c010000000000000000000000000281526014019450505050506040516020818303038152906040526040518082805190602001908083835b602083106106135780518252601f1990920191602091820191016105f4565b51815160209384036101000a600019018019909216911617905260408051929094018290038220336000818152600584528681205460c0860188528386528585018181529786018e8152606087018e905260808701939093524260a087015260038054600181018083559190935286517fc2575a0e9e593c00f959f8c92f12db2869c3395a3b0502d05e2516446f71f85b600690940293840190815598517fc2575a0e9e593c00f959f8c92f12db2869c3395a3b0502d05e2516446f71f85c84015592518051949c50909a5091985093965061071894507fc2575a0e9e593c00f959f8c92f12db2869c3395a3b0502d05e2516446f71f85d90930192909101906110ba565b50606082015180516107349160038401916020909101906110ba565b5060808201518160040160006101000a81548173ffffffffffffffffffffffffffffffffffffffff021916908373ffffffffffffffffffffffffffffffffffffffff16021790555060a082015181600501555050507fbe857f94359b4647ae555ce0c1fb3f328a0d7b4a60889d4d842737eb4558ce64828286863342604051808760001916600019168152602001866000191660001916815260200180602001806020018573ffffffffffffffffffffffffffffffffffffffff1673ffffffffffffffffffffffffffffffffffffffff168152602001848152602001838103835287818151815260200191508051906020019080838360005b8381101561084557818101518382015260200161082d565b50505050905090810190601f1680156108725780820380516001836020036101000a031916815260200191505b50838103825286518152865160209182019188019080838360005b838110156108a557818101518382015260200161088d565b50505050905090810190601f1680156108d25780820380516001836020036101000a031916815260200191505b509850505050505050505060405180910390a150505050565b336000908152600560205260408120548190151561096a57604080517f08c379a000000000000000000000000000000000000000000000000000000000815260206004820152601960248201527f536f727279212c204e6f7420666f756e64206163636f756e7400000000000000604482015290519081900360640190fd5b73ffffffffffffffffffffffffffffffffffffffff8416331415610a1557604080517f08c379a000000000000000000000000000000000000000000000000000000000815260206004820152602260248201527f43616e2774206c696b6520617320796f757273656c66206f6e2074686520706f60448201527f7374000000000000000000000000000000000000000000000000000000000000606482015290519081900360840190fd5b34915060008211610a8757604080517f08c379a000000000000000000000000000000000000000000000000000000000815260206004820152601560248201527f6d696e696d756d20636f737420666f72206c696b650000000000000000000000604482015290519081900360640190fd5b600080548301815560408051808201825285815233602082019081526004805460018101825590855291517f8a35acfbc15ff81a39ae7d344fd709f28e8600b4aa8c65c6b64bfe7fe36bd19b600290930292830155517f8a35acfbc15ff81a39ae7d344fd709f28e8600b4aa8c65c6b64bfe7fe36bd19c909101805473ffffffffffffffffffffffffffffffffffffffff191673ffffffffffffffffffffffffffffffffffffffff9283161790559051908616916108fc851502918591818181858888f19350505050158015610b61573d6000803e3d6000fd5b505073ffffffffffffffffffffffffffffffffffffffff8316600090815260066020526040902080548201908190556002548110610bff57600980546001810182556000919091527f6e1540171b6c0c960b71a7020d9f60077f6af931a8bbf590da0223dacf75c7af01805473ffffffffffffffffffffffffffffffffffffffff191673ffffffffffffffffffffffffffffffffffffffff86161790555b60008381526007602090815260409182902080546001019055815133815291517f97ce921dca1139e3cf958f8f24ed8465de7bb4037bb609ef0131c02dcda40d959281900390910190a150505050565b60035490565b60009081526007602052604090205490565b600080805b600954811015610cc0576009805433919083908110610c8757fe5b60009182526020909120015473ffffffffffffffffffffffffffffffffffffffff161415610cb85760019150610cc0565b600101610c6c565b50919050565b3360009081526005602052604090205490565b60606009805480602002602001604051908101604052809291908181526020018280548015610d3e57602002820191906000526020600020905b815473ffffffffffffffffffffffffffffffffffffffff168152600190910190602001808311610d13575b5050505050905090565b6004805482908110610d5657fe5b60009182526020909120600290910201805460019091015490915073ffffffffffffffffffffffffffffffffffffffff1682565b6003805482908110610d9857fe5b9060005260206000209060060201600091509050806000015490806001015490806002018054600181600116156101000203166002900480601f016020809104026020016040519081016040528092919081815260200182805460018160011615610100020316600290048015610e505780601f10610e2557610100808354040283529160200191610e50565b820191906000526020600020905b815481529060010190602001808311610e3357829003601f168201915b5050505060038301805460408051602060026001851615610100026000190190941693909304601f8101849004840282018401909252818152949594935090830182828015610ee05780601f10610eb557610100808354040283529160200191610ee0565b820191906000526020600020905b815481529060010190602001808311610ec357829003601f168201915b505050506004830154600590930154919273ffffffffffffffffffffffffffffffffffffffff1691905086565b6000808080808080805b600854831015610f8e576008805484908110610f2f57fe5b600091825260208083209091015473ffffffffffffffffffffffffffffffffffffffff168083526006909152604090912054909250905085811115610f835780955060025486101515610f83578093508194505b600190920191610f17565b509296919550909350505050565b60005481565b336000908152600560205260409020541561101e57604080517f08c379a000000000000000000000000000000000000000000000000000000000815260206004820152601f60248201527f536f727279212c20546869732061646472657373207265676973746572656400604482015290519081900360640190fd5b3360008181526005602090815260409182902084815560088054600181019091557ff3f7a9fe364faab93b216da50a3214154f22a0a2b415b23a84c8169e8b636ee301805473ffffffffffffffffffffffffffffffffffffffff1916851790555482519081529081019290925280517f5fde7be6fd256edbbe1d991a982527a20d550875499314500d2e12fd1be2e8369281900390910190a150565b828054600181600116156101000203166002900490600052602060002090601f016020900481019282601f106110fb57805160ff1916838001178555611128565b82800160010185558215611128579182015b8281111561112857825182559160200191906001019061110d565b50611134929150611138565b5090565b61046691905b80821115611134576000815560010161113e5600a165627a7a7230582054b10ae830bdbcafe015c09a78045e08e94a295aeb96f82345e1afa6bac535fe0029",
  "source": "pragma solidity ^0.4.24;\n\ncontract Social {\n\n    uint public balance;\n    address private owner;\n    uint private minimumValue = 2000000000000000000;\n\n    struct Post {\n        bytes32 id;\n        bytes32 username;\n        string message;\n        string hashImage;\n        address owner;\n        uint date;\n    }\n\n    struct LikePost {\n        bytes32 postId;\n        address owner;\n    }\n\n    Post[] public listPosts;\n    LikePost[] public likes; \n\n    mapping (address => bytes32) private users;\n    mapping(address => uint) private blogger;\n    mapping(bytes32 => uint) private likeMapPost;\n    address[] private addressUsers;\n    address[] private reporters;\n\n    event NewUser(bytes32 name, address account);\n    event NewPost(bytes32 id, bytes32 username, string message, string hashImage, address owner, uint date);\n    event NewBalance(address owner);\n\n    modifier requireAccount() {\n        require(users[msg.sender] != 0x0, \"Sorry!, Not found account\");\n        _;\n    }\n\n    constructor() public {\n        owner = msg.sender;\n    }\n\n    function register(bytes32 username) public {\n        require(users[msg.sender] == 0x0, \"Sorry!, This address registered\");\n        users[msg.sender] = username;\n        addressUsers.push(msg.sender);\n        emit NewUser(users[msg.sender], msg.sender);\n    }\n\n    function post(string message, string hashImage) public requireAccount {\n        bytes32 id = keccak256(abi.encodePacked(message, hashImage, now, msg.sender));\n        bytes32 username = users[msg.sender];\n        listPosts.push(Post(id, username, message, hashImage, msg.sender, now));\n        emit NewPost(id, username, message, hashImage, msg.sender, now);\n    }\n\n    function like(address receiver, bytes32 postId) public requireAccount payable {\n        require(receiver != msg.sender, \"Can't like as yourself on the post\");\n        uint amount = msg.value;\n        require(amount > 0, \"minimum cost for like\");\n        balance += amount;\n        likes.push(LikePost(postId, msg.sender));\n        receiver.transfer(amount);\n        blogger[receiver] += amount;\n        uint tempValue = blogger[receiver];\n        if (tempValue >= minimumValue) {\n            reporters.push(receiver);\n        }\n        likeMapPost[postId]++;\n        emit NewBalance(msg.sender);\n    }\n\n    function getBloggerMaxValue() public view returns (address, uint) {\n        uint _maxAmount;\n        address addressBlogger;\n        uint maxValue;\n        for (uint i=0; i < addressUsers.length; i++) {\n            address _addressUser = addressUsers[i];\n            uint amount = blogger[_addressUser];\n            if (amount > _maxAmount) {\n                _maxAmount = amount;\n                if (_maxAmount >= minimumValue) {\n                    maxValue = amount;\n                    addressBlogger = _addressUser;\n                }\n            }\n        }\n        return (addressBlogger, maxValue);\n    }\n\n    function checkPermission() public view returns (bool) {\n        bool isReporter = false;\n        for (uint i=0; i < reporters.length; i++) {\n            if (reporters[i] == msg.sender) {\n                isReporter = true;\n                break;\n            }\n        }\n        return isReporter;\n    }\n\n    function getReporters() public view returns (address[]) {\n        return reporters;\n    }\n\n    function getCountUser() public view returns (uint count) {\n        return addressUsers.length;\n    }\n\n    function getLiskeCountByPostId(bytes32 postId) public view returns (uint) {\n        return likeMapPost[postId];\n    }\n\n    function getUsername() public view returns (bytes32 username) {\n        return users[msg.sender];\n    }\n\n    function getTotalPost() public view returns (uint totalPost) {\n        return listPosts.length;\n    }\n}",
  "sourcePath": "/Users/jedsada/Documents/development/token-playground/contracts/app/Social.sol",
  "compiler": {
    "name": "solc",
    "version": "0.4.24+commit.e67f0147.Emscripten.clang"
  },
  "schemaVersion": "2.0.1",
  "updatedAt": "2018-10-18T04:03:44.815Z"
}