{
  "contractName": "Social",
  "abi": [
    {
      "constant": true,
      "inputs": [],
      "name": "ERC20Interface",
      "outputs": [
        {
          "name": "",
          "type": "address"
        }
      ],
      "payable": false,
      "stateMutability": "view",
      "type": "function"
    },
    {
      "constant": false,
      "inputs": [],
      "name": "unpause",
      "outputs": [],
      "payable": false,
      "stateMutability": "nonpayable",
      "type": "function"
    },
    {
      "constant": true,
      "inputs": [
        {
          "name": "account",
          "type": "address"
        }
      ],
      "name": "isPauser",
      "outputs": [
        {
          "name": "",
          "type": "bool"
        }
      ],
      "payable": false,
      "stateMutability": "view",
      "type": "function"
    },
    {
      "constant": true,
      "inputs": [],
      "name": "paused",
      "outputs": [
        {
          "name": "",
          "type": "bool"
        }
      ],
      "payable": false,
      "stateMutability": "view",
      "type": "function"
    },
    {
      "constant": false,
      "inputs": [],
      "name": "renouncePauser",
      "outputs": [],
      "payable": false,
      "stateMutability": "nonpayable",
      "type": "function"
    },
    {
      "constant": false,
      "inputs": [],
      "name": "renounceOwnership",
      "outputs": [],
      "payable": false,
      "stateMutability": "nonpayable",
      "type": "function"
    },
    {
      "constant": true,
      "inputs": [
        {
          "name": "",
          "type": "uint256"
        }
      ],
      "name": "likes",
      "outputs": [
        {
          "name": "postId",
          "type": "bytes32"
        },
        {
          "name": "owner",
          "type": "address"
        }
      ],
      "payable": false,
      "stateMutability": "view",
      "type": "function"
    },
    {
      "constant": false,
      "inputs": [
        {
          "name": "account",
          "type": "address"
        }
      ],
      "name": "addPauser",
      "outputs": [],
      "payable": false,
      "stateMutability": "nonpayable",
      "type": "function"
    },
    {
      "constant": true,
      "inputs": [],
      "name": "tokenContractAddress",
      "outputs": [
        {
          "name": "",
          "type": "address"
        }
      ],
      "payable": false,
      "stateMutability": "view",
      "type": "function"
    },
    {
      "constant": false,
      "inputs": [],
      "name": "pause",
      "outputs": [],
      "payable": false,
      "stateMutability": "nonpayable",
      "type": "function"
    },
    {
      "constant": true,
      "inputs": [
        {
          "name": "",
          "type": "uint256"
        }
      ],
      "name": "listPosts",
      "outputs": [
        {
          "name": "id",
          "type": "bytes32"
        },
        {
          "name": "username",
          "type": "bytes32"
        },
        {
          "name": "message",
          "type": "string"
        },
        {
          "name": "hashImage",
          "type": "string"
        },
        {
          "name": "owner",
          "type": "address"
        },
        {
          "name": "date",
          "type": "uint256"
        }
      ],
      "payable": false,
      "stateMutability": "view",
      "type": "function"
    },
    {
      "constant": true,
      "inputs": [],
      "name": "owner",
      "outputs": [
        {
          "name": "",
          "type": "address"
        }
      ],
      "payable": false,
      "stateMutability": "view",
      "type": "function"
    },
    {
      "constant": true,
      "inputs": [],
      "name": "isOwner",
      "outputs": [
        {
          "name": "",
          "type": "bool"
        }
      ],
      "payable": false,
      "stateMutability": "view",
      "type": "function"
    },
    {
      "constant": true,
      "inputs": [],
      "name": "balance",
      "outputs": [
        {
          "name": "",
          "type": "uint256"
        }
      ],
      "payable": false,
      "stateMutability": "view",
      "type": "function"
    },
    {
      "constant": false,
      "inputs": [
        {
          "name": "newOwner",
          "type": "address"
        }
      ],
      "name": "transferOwnership",
      "outputs": [],
      "payable": false,
      "stateMutability": "nonpayable",
      "type": "function"
    },
    {
      "inputs": [
        {
          "name": "_tokenContractAddress",
          "type": "address"
        }
      ],
      "payable": false,
      "stateMutability": "nonpayable",
      "type": "constructor"
    },
    {
      "anonymous": false,
      "inputs": [
        {
          "indexed": true,
          "name": "sender",
          "type": "address"
        },
        {
          "indexed": true,
          "name": "receiver",
          "type": "address"
        },
        {
          "indexed": false,
          "name": "amount",
          "type": "uint256"
        }
      ],
      "name": "TransferSuccessful",
      "type": "event"
    },
    {
      "anonymous": false,
      "inputs": [
        {
          "indexed": true,
          "name": "sender",
          "type": "address"
        },
        {
          "indexed": true,
          "name": "receiver",
          "type": "address"
        },
        {
          "indexed": false,
          "name": "amount",
          "type": "uint256"
        }
      ],
      "name": "TransferFailed",
      "type": "event"
    },
    {
      "anonymous": false,
      "inputs": [
        {
          "indexed": false,
          "name": "name",
          "type": "bytes32"
        },
        {
          "indexed": false,
          "name": "account",
          "type": "address"
        }
      ],
      "name": "NewUser",
      "type": "event"
    },
    {
      "anonymous": false,
      "inputs": [
        {
          "indexed": false,
          "name": "id",
          "type": "bytes32"
        },
        {
          "indexed": false,
          "name": "username",
          "type": "bytes32"
        },
        {
          "indexed": false,
          "name": "message",
          "type": "string"
        },
        {
          "indexed": false,
          "name": "hashImage",
          "type": "string"
        },
        {
          "indexed": false,
          "name": "owner",
          "type": "address"
        },
        {
          "indexed": false,
          "name": "date",
          "type": "uint256"
        }
      ],
      "name": "NewPost",
      "type": "event"
    },
    {
      "anonymous": false,
      "inputs": [
        {
          "indexed": false,
          "name": "owner",
          "type": "address"
        }
      ],
      "name": "NewBalance",
      "type": "event"
    },
    {
      "anonymous": false,
      "inputs": [
        {
          "indexed": false,
          "name": "account",
          "type": "address"
        }
      ],
      "name": "Paused",
      "type": "event"
    },
    {
      "anonymous": false,
      "inputs": [
        {
          "indexed": false,
          "name": "account",
          "type": "address"
        }
      ],
      "name": "Unpaused",
      "type": "event"
    },
    {
      "anonymous": false,
      "inputs": [
        {
          "indexed": true,
          "name": "account",
          "type": "address"
        }
      ],
      "name": "PauserAdded",
      "type": "event"
    },
    {
      "anonymous": false,
      "inputs": [
        {
          "indexed": true,
          "name": "account",
          "type": "address"
        }
      ],
      "name": "PauserRemoved",
      "type": "event"
    },
    {
      "anonymous": false,
      "inputs": [
        {
          "indexed": true,
          "name": "previousOwner",
          "type": "address"
        },
        {
          "indexed": true,
          "name": "newOwner",
          "type": "address"
        }
      ],
      "name": "OwnershipTransferred",
      "type": "event"
    },
    {
      "constant": false,
      "inputs": [
        {
          "name": "username",
          "type": "bytes32"
        }
      ],
      "name": "register",
      "outputs": [],
      "payable": false,
      "stateMutability": "nonpayable",
      "type": "function"
    },
    {
      "constant": false,
      "inputs": [
        {
          "name": "message",
          "type": "string"
        },
        {
          "name": "hashImage",
          "type": "string"
        }
      ],
      "name": "post",
      "outputs": [],
      "payable": false,
      "stateMutability": "nonpayable",
      "type": "function"
    },
    {
      "constant": false,
      "inputs": [
        {
          "name": "receiver",
          "type": "address"
        },
        {
          "name": "postId",
          "type": "bytes32"
        }
      ],
      "name": "like",
      "outputs": [],
      "payable": true,
      "stateMutability": "payable",
      "type": "function"
    },
    {
      "constant": false,
      "inputs": [
        {
          "name": "receiver",
          "type": "address"
        },
        {
          "name": "postId",
          "type": "bytes32"
        },
        {
          "name": "amount",
          "type": "uint256"
        }
      ],
      "name": "likeWithToken",
      "outputs": [],
      "payable": false,
      "stateMutability": "nonpayable",
      "type": "function"
    },
    {
      "constant": true,
      "inputs": [],
      "name": "getBloggerMaxValue",
      "outputs": [
        {
          "name": "",
          "type": "address"
        },
        {
          "name": "",
          "type": "uint256"
        }
      ],
      "payable": false,
      "stateMutability": "view",
      "type": "function"
    },
    {
      "constant": true,
      "inputs": [],
      "name": "checkPermission",
      "outputs": [
        {
          "name": "",
          "type": "bool"
        }
      ],
      "payable": false,
      "stateMutability": "view",
      "type": "function"
    },
    {
      "constant": true,
      "inputs": [],
      "name": "getReporters",
      "outputs": [
        {
          "name": "",
          "type": "address[]"
        }
      ],
      "payable": false,
      "stateMutability": "view",
      "type": "function"
    },
    {
      "constant": true,
      "inputs": [],
      "name": "getCountUser",
      "outputs": [
        {
          "name": "count",
          "type": "uint256"
        }
      ],
      "payable": false,
      "stateMutability": "view",
      "type": "function"
    },
    {
      "constant": true,
      "inputs": [
        {
          "name": "postId",
          "type": "bytes32"
        }
      ],
      "name": "getLiskeCountByPostId",
      "outputs": [
        {
          "name": "",
          "type": "uint256"
        }
      ],
      "payable": false,
      "stateMutability": "view",
      "type": "function"
    },
    {
      "constant": true,
      "inputs": [],
      "name": "getUsername",
      "outputs": [
        {
          "name": "username",
          "type": "bytes32"
        }
      ],
      "payable": false,
      "stateMutability": "view",
      "type": "function"
    },
    {
      "constant": true,
      "inputs": [],
      "name": "getTotalPost",
      "outputs": [
        {
          "name": "totalPost",
          "type": "uint256"
        }
      ],
      "payable": false,
      "stateMutability": "view",
      "type": "function"
    }
  ],
  "bytecode": "0x60806040526301312d006005553480156200001957600080fd5b5060405160208062001f34833981016040819052905160008054600160a060020a03191633178082559192600160a060020a0392909216917f8be0079c531659141344cd1fd0a4f28419497f9722a3daafe3b4186f6b6457e0908290a36200008a33640100000000620000c8810204565b6002805460ff191690556004805433600160a060020a03199182161790915560068054909116600160a060020a0392909216919091179055620001ad565b620000e360018264010000000062001c4b6200011a82021704565b604051600160a060020a038216907f6719d08c1888103bea251a4ed56406bd0c3e69723c8a1686e017e7bbe159b6f890600090a250565b600160a060020a03811615156200013057600080fd5b62000145828264010000000062000175810204565b156200015057600080fd5b600160a060020a0316600090815260209190915260409020805460ff19166001179055565b6000600160a060020a03821615156200018d57600080fd5b50600160a060020a03166000908152602091909152604090205460ff1690565b611d7780620001bd6000396000f3006080604052600436106101535763ffffffff7c0100000000000000000000000000000000000000000000000000000000600035041663094a9b0081146101585780630ae1b13d1461017f5780630c39c1d2146102185780631bbc4b831461024c5780633e52fba71461028a5780633f4ba83a146102ae57806346fbf68e146102c35780634e0778421461030557806355f8b1311461031a5780635a1c5830146103325780635c975abb14610347578063681f3e6d1461035c5780636ef8d66d1461037157806370f4620214610386578063715018a6146103eb5780637e9dffe61461040057806382dc1ec41461044657806382edaf94146104745780638456cb591461048957806385972e541461049e5780638da5cb5b146105cb5780638f32d59b146105e05780639d4a936c146105f5578063b69ef8a81461063a578063e1fa8e841461064f578063f2fde38b14610667575b600080fd5b34801561016457600080fd5b5061016d610695565b60408051918252519081900360200190f35b34801561018b57600080fd5b506040805160206004803580820135601f810184900484028501840190955284845261021694369492936024939284019190819084018382808284375050604080516020601f89358b018035918201839004830284018301909452808352979a99988101979196509182019450925082915084018382808284375094975061069c9650505050505050565b005b34801561022457600080fd5b5061021673ffffffffffffffffffffffffffffffffffffffff60043516602435604435610b1e565b34801561025857600080fd5b50610261611058565b6040805173ffffffffffffffffffffffffffffffffffffffff9092168252519081900360200190f35b61021673ffffffffffffffffffffffffffffffffffffffff60043516602435611074565b3480156102ba57600080fd5b506102166113db565b3480156102cf57600080fd5b506102f173ffffffffffffffffffffffffffffffffffffffff6004351661143f565b604080519115158252519081900360200190f35b34801561031157600080fd5b5061016d611458565b34801561032657600080fd5b5061016d60043561145e565b34801561033e57600080fd5b506102f1611470565b34801561035357600080fd5b506102f16114cf565b34801561036857600080fd5b5061016d6114d8565b34801561037d57600080fd5b506102166114eb565b34801561039257600080fd5b5061039b6114f6565b60408051602080825283518183015283519192839290830191858101910280838360005b838110156103d75781810151838201526020016103bf565b505050509050019250505060405180910390f35b3480156103f757600080fd5b50610216611565565b34801561040c57600080fd5b506104186004356115dc565b6040805192835273ffffffffffffffffffffffffffffffffffffffff90911660208301528051918290030190f35b34801561045257600080fd5b5061021673ffffffffffffffffffffffffffffffffffffffff6004351661161e565b34801561048057600080fd5b5061026161163e565b34801561049557600080fd5b5061021661165a565b3480156104aa57600080fd5b506104b66004356116c0565b60408051878152602080820188905273ffffffffffffffffffffffffffffffffffffffff8516608083015260a0820184905260c09282018381528751938301939093528651919291606084019160e08501919089019080838360005b8381101561052a578181015183820152602001610512565b50505050905090810190601f1680156105575780820380516001836020036101000a031916815260200191505b50838103825286518152865160209182019188019080838360005b8381101561058a578181015183820152602001610572565b50505050905090810190601f1680156105b75780820380516001836020036101000a031916815260200191505b509850505050505050505060405180910390f35b3480156105d757600080fd5b50610261611843565b3480156105ec57600080fd5b506102f161185f565b34801561060157600080fd5b5061060a61187d565b6040805173ffffffffffffffffffffffffffffffffffffffff909316835260208301919091528051918290030190f35b34801561064657600080fd5b5061016d61190c565b34801561065b57600080fd5b50610216600435611912565b34801561067357600080fd5b5061021673ffffffffffffffffffffffffffffffffffffffff60043516611a2a565b600d545b90565b336000908152600a60205260408120548190151561071b57604080517f08c379a000000000000000000000000000000000000000000000000000000000815260206004820152601960248201527f536f727279212c204e6f7420666f756e64206163636f756e7400000000000000604482015290519081900360640190fd5b838342336040516020018085805190602001908083835b602083106107515780518252601f199092019160209182019101610732565b51815160209384036101000a600019018019909216911617905287519190930192870191508083835b602083106107995780518252601f19909201916020918201910161077a565b6001836020036101000a0380198251168184511680821785525050505050509050018381526020018273ffffffffffffffffffffffffffffffffffffffff1673ffffffffffffffffffffffffffffffffffffffff166c010000000000000000000000000281526014019450505050506040516020818303038152906040526040518082805190602001908083835b602083106108465780518252601f199092019160209182019101610827565b51815160209384036101000a600019018019909216911617905260408051929094018290038220336000818152600a84528681205460c0860188528386528585018181529786018e8152606087018e905260808701939093524260a087015260088054600181018083559190935286517ff3f7a9fe364faab93b216da50a3214154f22a0a2b415b23a84c8169e8b636ee3600690940293840190815598517ff3f7a9fe364faab93b216da50a3214154f22a0a2b415b23a84c8169e8b636ee484015592518051949c50909a5091985093965061094b94507ff3f7a9fe364faab93b216da50a3214154f22a0a2b415b23a84c8169e8b636ee59093019290910190611cb3565b5060608201518051610967916003840191602090910190611cb3565b5060808201518160040160006101000a81548173ffffffffffffffffffffffffffffffffffffffff021916908373ffffffffffffffffffffffffffffffffffffffff16021790555060a082015181600501555050507fbe857f94359b4647ae555ce0c1fb3f328a0d7b4a60889d4d842737eb4558ce64828286863342604051808760001916600019168152602001866000191660001916815260200180602001806020018573ffffffffffffffffffffffffffffffffffffffff1673ffffffffffffffffffffffffffffffffffffffff168152602001848152602001838103835287818151815260200191508051906020019080838360005b83811015610a78578181015183820152602001610a60565b50505050905090810190601f168015610aa55780820380516001836020036101000a031916815260200191505b50838103825286518152865160209182019188019080838360005b83811015610ad8578181015183820152602001610ac0565b50505050905090810190601f168015610b055780820380516001836020036101000a031916815260200191505b509850505050505050505060405180910390a150505050565b336000908152600a602052604081205481901515610b9d57604080517f08c379a000000000000000000000000000000000000000000000000000000000815260206004820152601960248201527f536f727279212c204e6f7420666f756e64206163636f756e7400000000000000604482015290519081900360640190fd5b60025460ff1615610bad57600080fd5b73ffffffffffffffffffffffffffffffffffffffff8516331415610c5857604080517f08c379a000000000000000000000000000000000000000000000000000000000815260206004820152602260248201527f43616e2774206c696b6520617320796f757273656c66206f6e2074686520706f60448201527f7374000000000000000000000000000000000000000000000000000000000000606482015290519081900360840190fd5b60008311610cc757604080517f08c379a000000000000000000000000000000000000000000000000000000000815260206004820152601560248201527f6d696e696d756d20636f737420666f72206c696b650000000000000000000000604482015290519081900360640190fd5b6006546007805473ffffffffffffffffffffffffffffffffffffffff191673ffffffffffffffffffffffffffffffffffffffff9283161790819055604080517fdd62ed3e00000000000000000000000000000000000000000000000000000000815233600482018190523060248301529151919550919092169163dd62ed3e916044808201926020929091908290030181600087803b158015610d6957600080fd5b505af1158015610d7d573d6000803e3d6000fd5b505050506040513d6020811015610d9357600080fd5b5051831115610e06578473ffffffffffffffffffffffffffffffffffffffff168273ffffffffffffffffffffffffffffffffffffffff167fbf182be802245e8ed88e4b8d3e4344c0863dd2a70334f089fd07265389306fcf856040518082815260200191505060405180910390a3600080fd5b600754604080517f23b872dd00000000000000000000000000000000000000000000000000000000815273ffffffffffffffffffffffffffffffffffffffff8581166004830152888116602483015260448201879052915191909216916323b872dd9160648083019260209291908290030181600087803b158015610e8a57600080fd5b505af1158015610e9e573d6000803e3d6000fd5b505050506040513d6020811015610eb457600080fd5b505060038054840190555060408051808201825284815273ffffffffffffffffffffffffffffffffffffffff838116602080840191825260098054600181018255600091825294517f6e1540171b6c0c960b71a7020d9f60077f6af931a8bbf590da0223dacf75c7af60029096029586015591517f6e1540171b6c0c960b71a7020d9f60077f6af931a8bbf590da0223dacf75c7b0909401805473ffffffffffffffffffffffffffffffffffffffff1916948416949094179093559087168152600b9091522080548301908190556005548110610ff157600e80546001810182556000919091527fbb7b4a454dc3493923482f07822329ed19e8244eff582cc204f8554c3620c3fd01805473ffffffffffffffffffffffffffffffffffffffff191673ffffffffffffffffffffffffffffffffffffffff87161790555b6000848152600c602090815260409182902080546001019055815173ffffffffffffffffffffffffffffffffffffffff8516815291517f97ce921dca1139e3cf958f8f24ed8465de7bb4037bb609ef0131c02dcda40d959281900390910190a15050505050565b60075473ffffffffffffffffffffffffffffffffffffffff1681565b336000908152600a6020526040812054819015156110f357604080517f08c379a000000000000000000000000000000000000000000000000000000000815260206004820152601960248201527f536f727279212c204e6f7420666f756e64206163636f756e7400000000000000604482015290519081900360640190fd5b73ffffffffffffffffffffffffffffffffffffffff841633141561119e57604080517f08c379a000000000000000000000000000000000000000000000000000000000815260206004820152602260248201527f43616e2774206c696b6520617320796f757273656c66206f6e2074686520706f60448201527f7374000000000000000000000000000000000000000000000000000000000000606482015290519081900360840190fd5b3491506000821161121057604080517f08c379a000000000000000000000000000000000000000000000000000000000815260206004820152601560248201527f6d696e696d756d20636f737420666f72206c696b650000000000000000000000604482015290519081900360640190fd5b6003805483019055604080518082018252848152336020820190815260098054600181018255600091825292517f6e1540171b6c0c960b71a7020d9f60077f6af931a8bbf590da0223dacf75c7af60029094029384015590517f6e1540171b6c0c960b71a7020d9f60077f6af931a8bbf590da0223dacf75c7b0909201805473ffffffffffffffffffffffffffffffffffffffff191673ffffffffffffffffffffffffffffffffffffffff9384161790559151908616916108fc851502918591818181858888f193505050501580156112ed573d6000803e3d6000fd5b505073ffffffffffffffffffffffffffffffffffffffff83166000908152600b602052604090208054820190819055600554811061138b57600e80546001810182556000919091527fbb7b4a454dc3493923482f07822329ed19e8244eff582cc204f8554c3620c3fd01805473ffffffffffffffffffffffffffffffffffffffff191673ffffffffffffffffffffffffffffffffffffffff86161790555b6000838152600c602090815260409182902080546001019055815133815291517f97ce921dca1139e3cf958f8f24ed8465de7bb4037bb609ef0131c02dcda40d959281900390910190a150505050565b6113e43361143f565b15156113ef57600080fd5b60025460ff16151561140057600080fd5b6002805460ff191690556040805133815290517f5db9ee0a495bf2e6ff9c91a7834c1ba4fdd244a5e8aa4e537bd38aeae4b073aa9181900360200190a1565b600061145260018363ffffffff611a4616565b92915050565b60085490565b6000908152600c602052604090205490565b600080805b600e548110156114c957600e80543391908390811061149057fe5b60009182526020909120015473ffffffffffffffffffffffffffffffffffffffff1614156114c157600191506114c9565b600101611475565b50919050565b60025460ff1690565b336000908152600a602052604090205490565b6114f433611a97565b565b6060600e80548060200260200160405190810160405280929190818152602001828054801561155b57602002820191906000526020600020905b815473ffffffffffffffffffffffffffffffffffffffff168152600190910190602001808311611530575b5050505050905090565b61156d61185f565b151561157857600080fd5b6000805460405173ffffffffffffffffffffffffffffffffffffffff909116907f8be0079c531659141344cd1fd0a4f28419497f9722a3daafe3b4186f6b6457e0908390a36000805473ffffffffffffffffffffffffffffffffffffffff19169055565b60098054829081106115ea57fe5b60009182526020909120600290910201805460019091015490915073ffffffffffffffffffffffffffffffffffffffff1682565b6116273361143f565b151561163257600080fd5b61163b81611aec565b50565b60065473ffffffffffffffffffffffffffffffffffffffff1681565b6116633361143f565b151561166e57600080fd5b60025460ff161561167e57600080fd5b6002805460ff191660011790556040805133815290517f62e78cea01bee320cd4e420270b5ea74000d11b0c9f74754ebdbfc544b05a2589181900360200190a1565b60088054829081106116ce57fe5b9060005260206000209060060201600091509050806000015490806001015490806002018054600181600116156101000203166002900480601f0160208091040260200160405190810160405280929190818152602001828054600181600116156101000203166002900480156117865780601f1061175b57610100808354040283529160200191611786565b820191906000526020600020905b81548152906001019060200180831161176957829003601f168201915b5050505060038301805460408051602060026001851615610100026000190190941693909304601f81018490048402820184019092528181529495949350908301828280156118165780601f106117eb57610100808354040283529160200191611816565b820191906000526020600020905b8154815290600101906020018083116117f957829003601f168201915b505050506004830154600590930154919273ffffffffffffffffffffffffffffffffffffffff1691905086565b60045473ffffffffffffffffffffffffffffffffffffffff1681565b60005473ffffffffffffffffffffffffffffffffffffffff16331490565b6000808080808080805b600d548310156118fe57600d80548490811061189f57fe5b600091825260208083209091015473ffffffffffffffffffffffffffffffffffffffff16808352600b9091526040909120549092509050858111156118f357809550600554861015156118f3578093508194505b600190920191611887565b509296919550909350505050565b60035481565b336000908152600a60205260409020541561198e57604080517f08c379a000000000000000000000000000000000000000000000000000000000815260206004820152601f60248201527f536f727279212c20546869732061646472657373207265676973746572656400604482015290519081900360640190fd5b336000818152600a6020908152604091829020848155600d8054600181019091557fd7b6990105719101dabeb77144f2a3385c8033acd3af97e9423a695e81ad1eb501805473ffffffffffffffffffffffffffffffffffffffff1916851790555482519081529081019290925280517f5fde7be6fd256edbbe1d991a982527a20d550875499314500d2e12fd1be2e8369281900390910190a150565b611a3261185f565b1515611a3d57600080fd5b61163b81611b41565b600073ffffffffffffffffffffffffffffffffffffffff82161515611a6a57600080fd5b5073ffffffffffffffffffffffffffffffffffffffff166000908152602091909152604090205460ff1690565b611aa860018263ffffffff611be516565b60405173ffffffffffffffffffffffffffffffffffffffff8216907fcd265ebaf09df2871cc7bd4133404a235ba12eff2041bb89d9c714a2621c7c7e90600090a250565b611afd60018263ffffffff611c4b16565b60405173ffffffffffffffffffffffffffffffffffffffff8216907f6719d08c1888103bea251a4ed56406bd0c3e69723c8a1686e017e7bbe159b6f890600090a250565b73ffffffffffffffffffffffffffffffffffffffff81161515611b6357600080fd5b6000805460405173ffffffffffffffffffffffffffffffffffffffff808516939216917f8be0079c531659141344cd1fd0a4f28419497f9722a3daafe3b4186f6b6457e091a36000805473ffffffffffffffffffffffffffffffffffffffff191673ffffffffffffffffffffffffffffffffffffffff92909216919091179055565b73ffffffffffffffffffffffffffffffffffffffff81161515611c0757600080fd5b611c118282611a46565b1515611c1c57600080fd5b73ffffffffffffffffffffffffffffffffffffffff16600090815260209190915260409020805460ff19169055565b73ffffffffffffffffffffffffffffffffffffffff81161515611c6d57600080fd5b611c778282611a46565b15611c8157600080fd5b73ffffffffffffffffffffffffffffffffffffffff16600090815260209190915260409020805460ff19166001179055565b828054600181600116156101000203166002900490600052602060002090601f016020900481019282601f10611cf457805160ff1916838001178555611d21565b82800160010185558215611d21579182015b82811115611d21578251825591602001919060010190611d06565b50611d2d929150611d31565b5090565b61069991905b80821115611d2d5760008155600101611d375600a165627a7a72305820b3f5085f717ef741103d7227b380ce379bd9810eed20084a44224c7f070297070029",
  "source": "pragma solidity ^0.4.24;\n\nimport \"openzeppelin-solidity/contracts/token/ERC20/ERC20.sol\";\nimport \"openzeppelin-solidity/contracts/lifecycle/Pausable.sol\";\nimport \"openzeppelin-solidity/contracts/ownership/Ownable.sol\";\n\ncontract Social is Ownable, Pausable {\n\n    uint public balance;\n    address public owner;\n    uint private minimumValue = 20000000;\n    address public tokenContractAddress;\n\n    ERC20 public ERC20Interface;\n\n    event TransferSuccessful(address indexed sender, address indexed receiver, uint256 amount);\n    event TransferFailed(address indexed sender, address indexed receiver, uint256 amount);\n\n    struct Post {\n        bytes32 id;\n        bytes32 username;\n        string message;\n        string hashImage;\n        address owner;\n        uint date;\n    }\n\n    struct LikePost {\n        bytes32 postId;\n        address owner;\n    }\n\n    Post[] public listPosts;\n    LikePost[] public likes; \n\n    mapping (address => bytes32) private users;\n    mapping(address => uint) private blogger;\n    mapping(bytes32 => uint) private likeMapPost;\n    address[] private addressUsers;\n    address[] private reporters;\n\n    event NewUser(bytes32 name, address account);\n    event NewPost(bytes32 id, bytes32 username, string message, string hashImage, address owner, uint date);\n    event NewBalance(address owner);\n\n    modifier requireAccount() {\n        require(users[msg.sender] != 0x0, \"Sorry!, Not found account\");\n        _;\n    }\n\n    constructor(address _tokenContractAddress) public {\n        owner = msg.sender;\n        tokenContractAddress = _tokenContractAddress;\n    }\n\n    function register(bytes32 username) public {\n        require(users[msg.sender] == 0x0, \"Sorry!, This address registered\");\n        users[msg.sender] = username;\n        addressUsers.push(msg.sender);\n        emit NewUser(users[msg.sender], msg.sender);\n    }\n\n    function post(string message, string hashImage) public requireAccount {\n        bytes32 id = keccak256(abi.encodePacked(message, hashImage, now, msg.sender));\n        bytes32 username = users[msg.sender];\n        listPosts.push(Post(id, username, message, hashImage, msg.sender, now));\n        emit NewPost(id, username, message, hashImage, msg.sender, now);\n    }\n\n    function like(address receiver, bytes32 postId) public requireAccount payable {\n        require(receiver != msg.sender, \"Can't like as yourself on the post\");\n        uint amount = msg.value;\n        require(amount > 0, \"minimum cost for like\");\n        balance += amount;\n        likes.push(LikePost(postId, msg.sender));\n        receiver.transfer(amount);\n        blogger[receiver] += amount;\n        uint tempValue = blogger[receiver];\n        if (tempValue >= minimumValue) {\n            reporters.push(receiver);\n        }\n        likeMapPost[postId]++;\n        emit NewBalance(msg.sender);\n    }\n\n    function likeWithToken(address receiver, bytes32 postId, uint256 amount) public requireAccount whenNotPaused {\n        require(receiver != msg.sender, \"Can't like as yourself on the post\");\n        require(amount > 0, \"minimum cost for like\");\n\n        address from = msg.sender;\n\n        ERC20Interface = ERC20(tokenContractAddress);\n\n        if (amount > ERC20Interface.allowance(from, address(this))) {\n            emit TransferFailed(from, receiver, amount);\n            revert();\n        }\n\n        ERC20Interface.transferFrom(from, receiver, amount);\n        balance += amount;\n        likes.push(LikePost(postId, from));\n        blogger[receiver] += amount;\n        uint tempValue = blogger[receiver];\n        if (tempValue >= minimumValue) {\n            reporters.push(receiver);\n        }\n        likeMapPost[postId]++;\n        emit NewBalance(from);\n    }\n\n    function getBloggerMaxValue() public view returns (address, uint) {\n        uint _maxAmount;\n        address addressBlogger;\n        uint maxValue;\n        for (uint i=0; i < addressUsers.length; i++) {\n            address _addressUser = addressUsers[i];\n            uint amount = blogger[_addressUser];\n            if (amount > _maxAmount) {\n                _maxAmount = amount;\n                if (_maxAmount >= minimumValue) {\n                    maxValue = amount;\n                    addressBlogger = _addressUser;\n                }\n            }\n        }\n        return (addressBlogger, maxValue);\n    }\n\n    function checkPermission() public view returns (bool) {\n        bool isReporter = false;\n        for (uint i=0; i < reporters.length; i++) {\n            if (reporters[i] == msg.sender) {\n                isReporter = true;\n                break;\n            }\n        }\n        return isReporter;\n    }\n\n    function getReporters() public view returns (address[]) {\n        return reporters;\n    }\n\n    function getCountUser() public view returns (uint count) {\n        return addressUsers.length;\n    }\n\n    function getLiskeCountByPostId(bytes32 postId) public view returns (uint) {\n        return likeMapPost[postId];\n    }\n\n    function getUsername() public view returns (bytes32 username) {\n        return users[msg.sender];\n    }\n\n    function getTotalPost() public view returns (uint totalPost) {\n        return listPosts.length;\n    }\n}",
  "sourcePath": "/Users/jedsada/Documents/development/token-playground/contracts/app/Social.sol",
  "compiler": {
    "name": "solc",
    "version": "0.4.24+commit.e67f0147.Emscripten.clang"
  },
  "schemaVersion": "2.0.1",
  "updatedAt": "2018-10-26T05:21:37.387Z"
}