{
  "contractName": "Social",
  "abi": [
    {
      "constant": true,
      "inputs": [
        {
          "name": "",
          "type": "uint256"
        }
      ],
      "name": "posts",
      "outputs": [
        {
          "name": "id",
          "type": "bytes32"
        },
        {
          "name": "message",
          "type": "string"
        },
        {
          "name": "hashImage",
          "type": "string"
        },
        {
          "name": "owner",
          "type": "address"
        },
        {
          "name": "date",
          "type": "uint256"
        }
      ],
      "payable": false,
      "stateMutability": "view",
      "type": "function"
    },
    {
      "constant": true,
      "inputs": [
        {
          "name": "",
          "type": "uint256"
        }
      ],
      "name": "likes",
      "outputs": [
        {
          "name": "postId",
          "type": "bytes32"
        },
        {
          "name": "owner",
          "type": "address"
        }
      ],
      "payable": false,
      "stateMutability": "view",
      "type": "function"
    },
    {
      "constant": true,
      "inputs": [],
      "name": "balance",
      "outputs": [
        {
          "name": "",
          "type": "uint256"
        }
      ],
      "payable": false,
      "stateMutability": "view",
      "type": "function"
    },
    {
      "inputs": [],
      "payable": false,
      "stateMutability": "nonpayable",
      "type": "constructor"
    },
    {
      "anonymous": false,
      "inputs": [
        {
          "indexed": false,
          "name": "name",
          "type": "bytes32"
        },
        {
          "indexed": false,
          "name": "account",
          "type": "address"
        }
      ],
      "name": "NewUser",
      "type": "event"
    },
    {
      "anonymous": false,
      "inputs": [
        {
          "indexed": false,
          "name": "id",
          "type": "bytes32"
        },
        {
          "indexed": false,
          "name": "message",
          "type": "string"
        },
        {
          "indexed": false,
          "name": "hashImage",
          "type": "string"
        },
        {
          "indexed": false,
          "name": "owner",
          "type": "address"
        },
        {
          "indexed": false,
          "name": "date",
          "type": "uint256"
        }
      ],
      "name": "NewPost",
      "type": "event"
    },
    {
      "constant": false,
      "inputs": [
        {
          "name": "username",
          "type": "bytes32"
        }
      ],
      "name": "register",
      "outputs": [],
      "payable": false,
      "stateMutability": "nonpayable",
      "type": "function"
    },
    {
      "constant": false,
      "inputs": [
        {
          "name": "message",
          "type": "string"
        },
        {
          "name": "hashImage",
          "type": "string"
        }
      ],
      "name": "post",
      "outputs": [],
      "payable": false,
      "stateMutability": "nonpayable",
      "type": "function"
    },
    {
      "constant": false,
      "inputs": [
        {
          "name": "receiver",
          "type": "address"
        },
        {
          "name": "postId",
          "type": "bytes32"
        }
      ],
      "name": "like",
      "outputs": [],
      "payable": true,
      "stateMutability": "payable",
      "type": "function"
    },
    {
      "constant": true,
      "inputs": [],
      "name": "getBloggerMaxValue",
      "outputs": [
        {
          "name": "",
          "type": "address"
        },
        {
          "name": "",
          "type": "uint256"
        }
      ],
      "payable": false,
      "stateMutability": "view",
      "type": "function"
    },
    {
      "constant": true,
      "inputs": [],
      "name": "checkPermission",
      "outputs": [
        {
          "name": "",
          "type": "bool"
        }
      ],
      "payable": false,
      "stateMutability": "view",
      "type": "function"
    },
    {
      "constant": true,
      "inputs": [],
      "name": "getReporters",
      "outputs": [
        {
          "name": "",
          "type": "address[]"
        }
      ],
      "payable": false,
      "stateMutability": "view",
      "type": "function"
    },
    {
      "constant": true,
      "inputs": [],
      "name": "getCountUser",
      "outputs": [
        {
          "name": "count",
          "type": "uint256"
        }
      ],
      "payable": false,
      "stateMutability": "view",
      "type": "function"
    },
    {
      "constant": true,
      "inputs": [
        {
          "name": "postId",
          "type": "bytes32"
        }
      ],
      "name": "getLiskeCountByPostId",
      "outputs": [
        {
          "name": "",
          "type": "uint256"
        }
      ],
      "payable": false,
      "stateMutability": "view",
      "type": "function"
    },
    {
      "constant": true,
      "inputs": [],
      "name": "getUsername",
      "outputs": [
        {
          "name": "username",
          "type": "bytes32"
        }
      ],
      "payable": false,
      "stateMutability": "view",
      "type": "function"
    }
  ],
  "bytecode": "0x6080604052671bc16d674ec8000060025534801561001c57600080fd5b5060018054600160a060020a031916331790556110c58061003e6000396000f3006080604052600436106100b95763ffffffff7c0100000000000000000000000000000000000000000000000000000000600035041663094a9b0081146100be5780630ae1b13d146100e55780630b1e7f831461017e5780633e52fba7146102a357806355f8b131146102c75780635a1c5830146102df578063681f3e6d1461030857806370f462021461031d5780637e9dffe6146103825780639d4a936c146103c8578063b69ef8a81461040d578063e1fa8e8414610422575b600080fd5b3480156100ca57600080fd5b506100d361043a565b60408051918252519081900360200190f35b3480156100f157600080fd5b506040805160206004803580820135601f810184900484028501840190955284845261017c94369492936024939284019190819084018382808284375050604080516020601f89358b018035918201839004830284018301909452808352979a9998810197919650918201945092508291508401838280828437509497506104419650505050505050565b005b34801561018a57600080fd5b50610196600435610872565b6040805186815273ffffffffffffffffffffffffffffffffffffffff841660608201526080810183905260a060208083018281528851928401929092528751929391929184019160c085019189019080838360005b838110156102035781810151838201526020016101eb565b50505050905090810190601f1680156102305780820380516001836020036101000a031916815260200191505b50838103825286518152865160209182019188019080838360005b8381101561026357818101518382015260200161024b565b50505050905090810190601f1680156102905780820380516001836020036101000a031916815260200191505b5097505050505050505060405180910390f35b61017c73ffffffffffffffffffffffffffffffffffffffff600435166024356109f1565b3480156102d357600080fd5b506100d3600435610d1f565b3480156102eb57600080fd5b506102f4610d31565b604080519115158252519081900360200190f35b34801561031457600080fd5b506100d3610d90565b34801561032957600080fd5b50610332610da3565b60408051602080825283518183015283519192839290830191858101910280838360005b8381101561036e578181015183820152602001610356565b505050509050019250505060405180910390f35b34801561038e57600080fd5b5061039a600435610e12565b6040805192835273ffffffffffffffffffffffffffffffffffffffff90911660208301528051918290030190f35b3480156103d457600080fd5b506103dd610e54565b6040805173ffffffffffffffffffffffffffffffffffffffff909316835260208301919091528051918290030190f35b34801561041957600080fd5b506100d3610ee3565b34801561042e57600080fd5b5061017c600435610ee9565b6008545b90565b3360009081526005602052604081205415156104be57604080517f08c379a000000000000000000000000000000000000000000000000000000000815260206004820152601960248201527f536f727279212c204e6f7420666f756e64206163636f756e7400000000000000604482015290519081900360640190fd5b828242336040516020018085805190602001908083835b602083106104f45780518252601f1990920191602091820191016104d5565b51815160209384036101000a600019018019909216911617905287519190930192870191508083835b6020831061053c5780518252601f19909201916020918201910161051d565b6001836020036101000a0380198251168184511680821785525050505050509050018381526020018273ffffffffffffffffffffffffffffffffffffffff1673ffffffffffffffffffffffffffffffffffffffff166c010000000000000000000000000281526014019450505050506040516020818303038152906040526040518082805190602001908083835b602083106105e95780518252601f1990920191602091820191016105ca565b51815160209384036101000a60001901801990921691161790526040805192909401829003822060a0830185528083528282018a8152948301899052336060840152426080840152600380546001810180835560009290925284517fc2575a0e9e593c00f959f8c92f12db2869c3395a3b0502d05e2516446f71f85b600590920291820190815596518051939a509198509396506106b094507fc2575a0e9e593c00f959f8c92f12db2869c3395a3b0502d05e2516446f71f85c9093019290910190611001565b50604082015180516106cc916002840191602090910190611001565b5060608201518160030160006101000a81548173ffffffffffffffffffffffffffffffffffffffff021916908373ffffffffffffffffffffffffffffffffffffffff160217905550608082015181600401555050507fcfc0869d37b438ac485b962ea41fa29300c41bcfe3d8fcd28ce1f657b4fb10b2818484334260405180866000191660001916815260200180602001806020018573ffffffffffffffffffffffffffffffffffffffff1673ffffffffffffffffffffffffffffffffffffffff168152602001848152602001838103835287818151815260200191508051906020019080838360005b838110156107ce5781810151838201526020016107b6565b50505050905090810190601f1680156107fb5780820380516001836020036101000a031916815260200191505b50838103825286518152865160209182019188019080838360005b8381101561082e578181015183820152602001610816565b50505050905090810190601f16801561085b5780820380516001836020036101000a031916815260200191505b5097505050505050505060405180910390a1505050565b600380548290811061088057fe5b9060005260206000209060050201600091509050806000015490806001018054600181600116156101000203166002900480601f0160208091040260200160405190810160405280929190818152602001828054600181600116156101000203166002900480156109325780601f1061090757610100808354040283529160200191610932565b820191906000526020600020905b81548152906001019060200180831161091557829003601f168201915b50505060028085018054604080516020601f60001961010060018716150201909416959095049283018590048502810185019091528181529596959450909250908301828280156109c45780601f10610999576101008083540402835291602001916109c4565b820191906000526020600020905b8154815290600101906020018083116109a757829003601f168201915b505050506003830154600490930154919273ffffffffffffffffffffffffffffffffffffffff1691905085565b3360009081526005602052604081205481901515610a7057604080517f08c379a000000000000000000000000000000000000000000000000000000000815260206004820152601960248201527f536f727279212c204e6f7420666f756e64206163636f756e7400000000000000604482015290519081900360640190fd5b73ffffffffffffffffffffffffffffffffffffffff8416331415610b1b57604080517f08c379a000000000000000000000000000000000000000000000000000000000815260206004820152602260248201527f43616e2774206c696b6520617320796f757273656c66206f6e2074686520706f60448201527f7374000000000000000000000000000000000000000000000000000000000000606482015290519081900360840190fd5b34915060008211610b8d57604080517f08c379a000000000000000000000000000000000000000000000000000000000815260206004820152601560248201527f6d696e696d756d20636f737420666f72206c696b650000000000000000000000604482015290519081900360640190fd5b600080548301815560408051808201825285815233602082019081526004805460018101825590855291517f8a35acfbc15ff81a39ae7d344fd709f28e8600b4aa8c65c6b64bfe7fe36bd19b600290930292830155517f8a35acfbc15ff81a39ae7d344fd709f28e8600b4aa8c65c6b64bfe7fe36bd19c909101805473ffffffffffffffffffffffffffffffffffffffff191673ffffffffffffffffffffffffffffffffffffffff9283161790559051908616916108fc851502918591818181858888f19350505050158015610c67573d6000803e3d6000fd5b505073ffffffffffffffffffffffffffffffffffffffff8316600090815260066020526040902080548201908190556002548110610d0557600980546001810182556000919091527f6e1540171b6c0c960b71a7020d9f60077f6af931a8bbf590da0223dacf75c7af01805473ffffffffffffffffffffffffffffffffffffffff191673ffffffffffffffffffffffffffffffffffffffff86161790555b505060009081526007602052604090208054600101905550565b60009081526007602052604090205490565b600080805b600954811015610d8a576009805433919083908110610d5157fe5b60009182526020909120015473ffffffffffffffffffffffffffffffffffffffff161415610d825760019150610d8a565b600101610d36565b50919050565b3360009081526005602052604090205490565b60606009805480602002602001604051908101604052809291908181526020018280548015610e0857602002820191906000526020600020905b815473ffffffffffffffffffffffffffffffffffffffff168152600190910190602001808311610ddd575b5050505050905090565b6004805482908110610e2057fe5b60009182526020909120600290910201805460019091015490915073ffffffffffffffffffffffffffffffffffffffff1682565b6000808080808080805b600854831015610ed5576008805484908110610e7657fe5b600091825260208083209091015473ffffffffffffffffffffffffffffffffffffffff168083526006909152604090912054909250905085811115610eca5780955060025486101515610eca578093508194505b600190920191610e5e565b509296919550909350505050565b60005481565b3360009081526005602052604090205415610f6557604080517f08c379a000000000000000000000000000000000000000000000000000000000815260206004820152601f60248201527f536f727279212c20546869732061646472657373207265676973746572656400604482015290519081900360640190fd5b3360008181526005602090815260409182902084815560088054600181019091557ff3f7a9fe364faab93b216da50a3214154f22a0a2b415b23a84c8169e8b636ee301805473ffffffffffffffffffffffffffffffffffffffff1916851790555482519081529081019290925280517f5fde7be6fd256edbbe1d991a982527a20d550875499314500d2e12fd1be2e8369281900390910190a150565b828054600181600116156101000203166002900490600052602060002090601f016020900481019282601f1061104257805160ff191683800117855561106f565b8280016001018555821561106f579182015b8281111561106f578251825591602001919060010190611054565b5061107b92915061107f565b5090565b61043e91905b8082111561107b57600081556001016110855600a165627a7a72305820f0d8b1753efc7aba4d1e2cae8cc3b9c48ea19f3f909ed31a01a68683fb5b7f050029",
  "source": "pragma solidity ^0.4.24;\n\ncontract Social {\n\n    uint public balance;\n    address private owner;\n    uint private minimumValue = 2000000000000000000;\n\n    struct Post {\n        bytes32 id;\n        string message;\n        string hashImage;\n        address owner;\n        uint date;\n    }\n\n    struct LikePost {\n        bytes32 postId;\n        address owner;\n    }\n\n    Post[] public posts;\n    LikePost[] public likes; \n\n    mapping (address => bytes32) private users;\n    mapping(address => uint) private blogger;\n    mapping(bytes32 => uint) private likeMapPost;\n    address[] private addressUsers;\n    address[] private reporters;\n\n    event NewUser(bytes32 name, address account);\n    event NewPost(bytes32 id, string message, string hashImage, address owner, uint date);\n\n    modifier requireAccount() {\n        require(users[msg.sender] != 0x0, \"Sorry!, Not found account\");\n        _;\n    }\n\n    constructor() public {\n        owner = msg.sender;\n    }\n\n    function register(bytes32 username) public {\n        require(users[msg.sender] == 0x0, \"Sorry!, This address registered\");\n        users[msg.sender] = username;\n        addressUsers.push(msg.sender);\n        emit NewUser(users[msg.sender], msg.sender);\n    }\n\n    function post(string message, string hashImage) public requireAccount {\n        bytes32 id = keccak256(abi.encodePacked(message, hashImage, now, msg.sender));\n        posts.push(Post(id, message, hashImage, msg.sender, now));\n        emit NewPost(id, message, hashImage, msg.sender, now);\n    }\n\n    function like(address receiver, bytes32 postId) public requireAccount payable {\n        require(receiver != msg.sender, \"Can't like as yourself on the post\");\n        uint amount = msg.value;\n        require(amount > 0, \"minimum cost for like\");\n        balance += amount;\n        likes.push(LikePost(postId, msg.sender));\n        receiver.transfer(amount);\n        blogger[receiver] += amount;\n        uint tempValue = blogger[receiver];\n        if (tempValue >= minimumValue) {\n            reporters.push(receiver);\n        }\n        likeMapPost[postId]++;\n    }\n\n    function getBloggerMaxValue() public view returns (address, uint) {\n        uint _maxAmount;\n        address addressBlogger;\n        uint maxValue;\n        for (uint i=0; i < addressUsers.length; i++) {\n            address _addressUser = addressUsers[i];\n            uint amount = blogger[_addressUser];\n            if (amount > _maxAmount) {\n                _maxAmount = amount;\n                if (_maxAmount >= minimumValue) {\n                    maxValue = amount;\n                    addressBlogger = _addressUser;\n                }\n            }\n        }\n        return (addressBlogger, maxValue);\n    }\n\n    function checkPermission() public view returns (bool) {\n        bool isReporter = false;\n        for (uint i=0; i < reporters.length; i++) {\n            if (reporters[i] == msg.sender) {\n                isReporter = true;\n                break;\n            }\n        }\n        return isReporter;\n    }\n\n    function getReporters() public view returns (address[]) {\n        return reporters;\n    }\n\n    function getCountUser() public view returns (uint count) {\n        return addressUsers.length;\n    }\n\n    function getLiskeCountByPostId(bytes32 postId) public view returns (uint) {\n        return likeMapPost[postId];\n    }\n\n    function getUsername() public view returns (bytes32 username) {\n        return users[msg.sender];\n    }\n}",
  "sourcePath": "/Users/jedsada/Documents/development/token-playground/contracts/app/Social.sol",
  "compiler": {
    "name": "solc",
    "version": "0.4.24+commit.e67f0147.Emscripten.clang"
  },
  "schemaVersion": "2.0.1",
  "updatedAt": "2018-10-16T08:19:27.867Z"
}