{
  "contractName": "StorageState",
  "abi": [
    {
      "constant": true,
      "inputs": [],
      "name": "tokenStorage",
      "outputs": [
        {
          "name": "",
          "type": "address"
        }
      ],
      "payable": false,
      "stateMutability": "view",
      "type": "function"
    }
  ],
  "bytecode": "0x608060405234801561001057600080fd5b5060c68061001f6000396000f300608060405260043610603e5763ffffffff7c0100000000000000000000000000000000000000000000000000000000600035041663b199efb581146043575b600080fd5b348015604e57600080fd5b506055607e565b6040805173ffffffffffffffffffffffffffffffffffffffff9092168252519081900360200190f35b60005473ffffffffffffffffffffffffffffffffffffffff16815600a165627a7a723058206ace12a1768ce7ca6bb553d2e6df57e66e537d1dbafe5e8510cc6c861ed2e8610029",
  "source": "pragma solidity ^0.4.24;\n\nimport \"../storage/TokenStorage.sol\";\n\ncontract StorageState {\n    TokenStorage public tokenStorage;\n}",
  "sourcePath": "/Users/jedsada/Documents/development/token-playground/contracts/state/StorageState.sol",
  "compiler": {
    "name": "solc",
    "version": "0.4.24+commit.e67f0147.Emscripten.clang"
  },
  "schemaVersion": "2.0.1",
  "updatedAt": "2018-10-26T06:54:32.568Z"
}