{
  "contractName": "StorageState",
  "abi": [
    {
      "constant": true,
      "inputs": [],
      "name": "tokenStorage",
      "outputs": [
        {
          "name": "",
          "type": "address"
        }
      ],
      "payable": false,
      "stateMutability": "view",
      "type": "function"
    }
  ],
  "bytecode": "0x608060405234801561001057600080fd5b5060c68061001f6000396000f300608060405260043610603e5763ffffffff7c0100000000000000000000000000000000000000000000000000000000600035041663b199efb581146043575b600080fd5b348015604e57600080fd5b506055607e565b6040805173ffffffffffffffffffffffffffffffffffffffff9092168252519081900360200190f35b60005473ffffffffffffffffffffffffffffffffffffffff16815600a165627a7a72305820cdb6e4e9c1be482c86ce534cd4b21abc10ea46406afa765c3877d3ad1e77e1100029",
  "source": "pragma solidity ^0.4.24;\n\nimport \"../storage/TokenStorage.sol\";\n\ncontract StorageState {\n    TokenStorage public tokenStorage;\n}",
  "sourcePath": "/Users/jedsada/Documents/development/token-playground/contracts/state/StorageState.sol",
  "compiler": {
    "name": "solc",
    "version": "0.4.25+commit.59dbf8f1.Emscripten.clang"
  },
  "schemaVersion": "2.0.2",
  "updatedAt": "2019-04-01T04:01:21.492Z"
}